:1000000045C000009CC20000B8C200005CC00000F7
:100010005AC0000058C0000056C0000054C0000084
:1000200052C0000050C00000A9C000004CC0000039
:100030004AC0000048C0000046C0000044C00000A4
:1000400042C0000040C000003EC000003CC00000B4
:100050003AC0000038C0000036C0000034C00000C4
:1000600032C0000030C000002EC000002CC00000D4
:100070002AC0000028C0000026C0000024C00000E4
:1000800022C0000020C000001EC0000011241FBEBE
:10009000CFEFD0E1DEBFCDBF11E0A0E0B1E0EEE4F4
:1000A000FBE000E00BBF02C007900D92A830B10743
:1000B000D9F721E0A8E0B1E001C01D92A132B2075A
:1000C000E1F779D242C59CCF2091170130911801F8
:1000D000A901440F551F220F331F220F331F220F78
:1000E000331F240F351F3093180120931701482F19
:1000F00050E04053510950930B0140930A018D3257
:1001000031F481E090E090930901809308014A3036
:10011000510530F4240F351F309318012093170137
:1001200008952091150130911601A901440F551F22
:10013000220F331F220F331F220F331F240F351FAF
:100140003093160120931501482F50E04053510978
:1001500050930B0140930A018D3231F481E090E01D
:1001600090930901809308014A30510530F4240F1F
:10017000351F309316012093150108951F920F9299
:100180000FB60F9211240BB60F92CF92DF92EF921F
:10019000FF920F931F932F933F934F935F936F9310
:1001A0007F938F939F93AF93BF93CF93DF93EF93FF
:1001B000FF938091190190911A01019690931A0171
:1001C0008093190183E882BF8FEF8ABB12D280939C
:1001D0000C01833709F0F8C00DE011E00F2EF5E1B6
:1001E000EF2EF1E0FF2EF02DE80103D28993CE151A
:1001F000DF05D9F780910C01853639F090E0F1D117
:10020000F80181918F018536C9F78DE090E0E9D141
:1002100080910D018C3269F00EE011E0C1E0D0E078
:1002200090E052DF2196F80181918F018C32C1F765
:1002300002C0C1E0D0E080910801909109010197CE
:1002400059F4809117019091180191958195910928
:1002500090931801809317011092090110920801E0
:10026000FE01E45FFE4F81818536C1F0C25FDE4F43
:1002700090E057DF89918536D9F7809108019091F8
:100280000901019759F480911501909116019195FA
:10029000819591099093160180931501109209019F
:1002A000109208018091170190911801AAD18091B4
:1002B000150190911601A5D18DE090E092D1609149
:1002C00017017091180167397105E8F4072E000CC9
:1002D000880B990BFCD220E030E046E153E45CD27D
:1002E0002CEE31E548E35DE3A6D32AE037ED43EA9F
:1002F0005DE3EAD1609304017093050180930601E8
:10030000909307010FC06739710564F080E090E0B9
:10031000A0E0BEE38093040190930501A093060141
:10032000B09307016091150170911601CB01865AB7
:100330009F4F853B9105E8F4072E000C880B990B25
:10034000C6D220E030E044EB52E426D22CEE31E578
:1003500048E35DE370D32AE939E949E95DE3B4D1C3
:100360006093000170930101809302019093030157
:100370001FC06B3571056CF080E992ECA5EFBDE311
:100380008093000190930101A0930201B0930301B7
:100390000FC0663A7F4F64F480E992ECA5EFBCE3AE
:1003A0008093000190930101A0930201B093030197
:1003B0001092180110921701109216011092150157
:1003C00010921E0110921D01C0918200D0918300F5
:1003D00020E030E44CE954E460910401709105019F
:1003E000809106019091070126D36B017C01BE012B
:1003F00080E090E06AD2A701960165D135D29B01D9
:10040000772324F422273327261B370B223031058C
:100410005CF1609182007091830080E090E055D2A1
:100420009B01AC01C701B60102D3181644F4E2E8FF
:10043000F0E08081918101969183808315C0609165
:1004400082007091830080E090E03FD29B01AC017C
:10045000C701B6019DD188233CF4E2E8F0E0808139
:100460009181019791838083C0918400D091850010
:1004700020E030E44CE954E4609100017091010106
:100480008091020190910301D6D26B017C01BE01E3
:1004900080E090E01AD2A701960115D1E5D19B0129
:1004A000772324F422273327261B370B22303105EC
:1004B0005CF1609184007091850080E090E005D24D
:1004C0009B01AC01C701B601B2D2181644F4E4E8AE
:1004D000F0E08081918101969183808315C06091C5
:1004E00084007091850080E090E0EFD19B01AC0129
:1004F000C701B6014DD188233CF4E4E8F0E08081E7
:100500009181019791838083FF91EF91DF91CF914A
:10051000BF91AF919F918F917F916F915F914F911B
:100520003F912F911F910F91FF90EF90DF90CF900F
:100530000F900BBE0F900FBE0F901F9018951F923B
:100540000F920FB60F9211248F939F93AF93BF9387
:100550008AE097EDA3EABDE380930401909305013F
:10056000A0930601B0930701BF91AF919F918F9126
:100570000F900FBE0F901F9018951F920F920FB6FD
:100580000F9211248F939F93AF93BF938AE999E9B8
:10059000A9E9BDE38093000190930101A0930201BA
:1005A000B0930301BF91AF919F918F910F900FBEB8
:1005B0000F901F90189506D063D069D06FD07ED071
:1005C0007894FFCF88E081BB10929B0098E19093D4
:1005D0009A0096E090939D00109298008093990065
:1005E0000895EBE9F0E0908195FFFDCF80939C00AA
:1005F0000895EBE9F0E080818823ECF780919C007E
:100600000895AF92BF92CF92DF92EF92FF920F9335
:100610001F93CF93DF93EC019923DCF48DE2E1DFAC
:10062000D195C195D10915C0CE01B80167D2C82EA8
:10063000D92E80E3860FD5DFCC2DDD2DC801B50185
:100640005DD28B0181E0E81AF10871F780E2C9DF21
:100650000CC06894EE24E2F8F12C08EE13E00F2EA3
:10066000FAE0AF2EB12CF02DDFCFDF91CF911F91AB
:100670000F91FF90EF90DF90CF90BF90AF900895D3
:1006800084E085BD80E487BF83E884BD089511BA06
:1006900083E089BF8AE080936A00089580E382B98D
:1006A00083B98AEA80938B008CE180938A0080E78B
:1006B00092E09093810080938000089510926100F1
:1006C00087E886B908955058BB27AA270ED075C170
:1006D00066D130F06BD120F031F49F3F11F41EF45D
:1006E0005BC10EF4E095E7FB51C1E92F77D180F3B0
:1006F000BA17620773078407950718F071F49EF51F
:100700008FC10EF4E0950B2EBA2FA02D0B01B9016D
:1007100090010C01CA01A0011124FF27591B99F077
:10072000593F50F4503E68F11A16F040A22F232F83
:10073000342F4427585FF3CF469537952795A795D3
:10074000F0405395C9F77EF41F16BA0B620B730B7A
:10075000840BBAF09150A1F0FF0FBB1F661F771FEB
:10076000881FC2F70EC0BA0F621F731F841F48F4A0
:10077000879577956795B795F7959E3F08F0B3CF26
:100780009395880F08F09927EE0F97958795089510
:10079000D9D008F481E008950CD00FC107D140F002
:1007A000FED030F021F45F3F19F0F0C0511139C193
:1007B000F3C014D198F39923C9F35523B1F3951BD2
:1007C000550BBB27AA2762177307840738F09F5F72
:1007D0005F4F220F331F441FAA1FA9F333D00E2EE1
:1007E0003AF0E0E830D091505040E695001CCAF74E
:1007F00029D0FE2F27D0660F771F881FBB1F261713
:1008000037074807AB07B0E809F0BB0B802DBF01E5
:10081000FF2793585F4F2AF09E3F510568F0B6C0FE
:1008200000C15F3FECF3983EDCF3869577956795C2
:10083000B795F7959F5FC9F7880F911D9695879596
:1008400097F90895E1E0660F771F881FBB1F6217B5
:1008500073078407BA0720F0621B730B840BBA0B73
:10086000EE1F88F7E095089504D06894B111D9C0BF
:100870000895BCD088F09F5790F0B92F9927B751B1
:10088000A0F0D1F0660F771F881F991F1AF0BA9554
:10089000C9F712C0B13081F0C3D0B1E00895C0C033
:1008A000672F782F8827B85F39F0B93FCCF386954A
:1008B00077956795B395D9F73EF4909580957095A7
:1008C00061957F4F8F4F9F4F0895E89409C097FB24
:1008D0003EF490958095709561957F4F8F4F9F4F17
:1008E0009923A9F0F92F96E9BB279395F69587955B
:1008F00077956795B795F111F8CFFAF4BB0F11F41E
:1009000060FF1BC06F5F7F4F8F4F9F4F16C08823C4
:1009100011F096E911C0772321F09EE8872F762FFA
:1009200005C0662371F096E8862F70E060E02AF03B
:100930009A95660F771F881FDAF7880F9695879527
:1009400097F90895990F0008550FAA0BE0E8FEEFFC
:1009500016161706E807F907C0F012161306E40783
:10096000F50798F0621B730B840B950B39F40A267C
:1009700061F0232B242B252B21F408950A2609F45A
:10098000A140A6958FEF811D811D089597F99F675E
:1009900080E870E060E008959FEF80EC0895002407
:1009A0000A941616170618060906089500240A94D4
:1009B00012161306140605060895092E0394000C5A
:1009C00011F4882352F0BB0F40F4BF2B11F460FFE9
:1009D00004C06F5F7F4F8F4F9F4F089557FD905812
:1009E000440F551F59F05F3F71F04795880F97FBF3
:1009F000991F61F09F3F79F08795089512161306AD
:100A00001406551FF2CF4695F1DF08C016161706DB
:100A10001806991FF1CF8695710561050894089510
:100A2000E894BB2766277727CB0197F908958ADFDB
:100A300008F48FEF08950BD0C0CFB1DF28F0B6DFF8
:100A400018F0952309F0A2CFA7CF1124EACFC6DF73
:100A5000A0F3959FD1F3950F50E0551F629FF001D1
:100A6000729FBB27F00DB11D639FAA27F00DB11D2A
:100A7000AA1F649F6627B00DA11D661F829F2227B3
:100A8000B00DA11D621F739FB00DA11D621F839F3A
:100A9000A00D611D221F749F3327A00D611D231F10
:100AA000849F600D211D822F762F6A2F11249F575E
:100AB00050408AF0E1F088234AF0EE0FFF1FBB1F81
:100AC000661F771F881F91505040A9F79E3F510520
:100AD00070F05CCFA6CF5F3FECF3983EDCF38695D9
:100AE00077956795B795F795E7959F5FC1F7FE2BCB
:100AF000880F911D9695879597F9089597FB072E76
:100B000016F4009406D077FD08D00BD007FC05D072
:100B10003EF4909581959F4F0895709561957F4F14
:100B20000895AA1BBB1B51E107C0AA1FBB1FA61734
:100B3000B70710F0A61BB70B881F991F5A95A9F786
:0E0B400080959095BC01CD010895F894FFCFEB
:080B4E009A99993D0AD7A33DD5
:00000001FF
